{
  "transactions": [
    {
      "hash": "0xe139858a16047ee39346dcf7597c5240fa94f7a203c062ab3c6ca92161ffd174",
      "transactionType": "CALL",
      "contractName": null,
      "contractAddress": "0x94a9d9ac8a22534e3faca9f4e7f2e2cf85d5e4c8",
      "function": "approve(address,uint256)",
      "arguments": [
        "0x9D9D8b57D51C31454CfB262c9371baD8DEA20573",
        "115792089237316195423570985008687907853269984665640564039457584007913129639935"
      ],
      "transaction": {
        "from": "0xd07ba8f10a16ef1e5024cf58a84adb6df228bb4a",
        "to": "0x94a9d9ac8a22534e3faca9f4e7f2e2cf85d5e4c8",
        "gas": "0x10a01",
        "value": "0x0",
        "input": "0x095ea7b30000000000000000000000009d9d8b57d51c31454cfb262c9371bad8dea20573ffffffffffffffffffffffffffffffffffffffffffffffffffffffffffffffff",
        "nonce": "0x54",
        "chainId": "0xaa36a7"
      },
      "additionalContracts": [],
      "isFixedGasLimit": false
    },
    {
      "hash": "0x33a5fb954d2d8111f3bb08c86b568415a4d44e4d5292752f8c015e42cb19afee",
      "transactionType": "CALL",
      "contractName": null,
      "contractAddress": "0x9d9d8b57d51c31454cfb262c9371bad8dea20573",
      "function": "executeUSDCTransfer(address,uint256,uint256)",
      "arguments": [
        "0xf39Fd6e51aad88F6F4ce6aB8827279cffFb92266",
        "10000000",
        "1000000"
      ],
      "transaction": {
        "from": "0xd07ba8f10a16ef1e5024cf58a84adb6df228bb4a",
        "to": "0x9d9d8b57d51c31454cfb262c9371bad8dea20573",
        "gas": "0x13107",
        "value": "0x0",
        "input": "0x07378d23000000000000000000000000f39fd6e51aad88f6f4ce6ab8827279cfffb92266000000000000000000000000000000000000000000000000000000000098968000000000000000000000000000000000000000000000000000000000000f4240",
        "nonce": "0x55",
        "chainId": "0xaa36a7"
      },
      "additionalContracts": [],
      "isFixedGasLimit": false
    }
  ],
  "receipts": [
    {
      "status": "0x1",
      "cumulativeGasUsed": "0x1e5e938",
      "logs": [
        {
          "address": "0x94a9d9ac8a22534e3faca9f4e7f2e2cf85d5e4c8",
          "topics": [
            "0x8c5be1e5ebec7d5bd14f71427d1e84f3dd0314c0f7b2291e5b200ac8c7c3b925",
            "0x000000000000000000000000d07ba8f10a16ef1e5024cf58a84adb6df228bb4a",
            "0x0000000000000000000000009d9d8b57d51c31454cfb262c9371bad8dea20573"
          ],
          "data": "0xffffffffffffffffffffffffffffffffffffffffffffffffffffffffffffffff",
          "blockHash": "0xcc3137b11d64da51d84770c79e5f0d76ad76ca076b35f9ebeee2ca3fb8148ca1",
          "blockNumber": "0x8b045a",
          "blockTimestamp": "0x68b590d8",
          "transactionHash": "0xe139858a16047ee39346dcf7597c5240fa94f7a203c062ab3c6ca92161ffd174",
          "transactionIndex": "0x63",
          "logIndex": "0xeb",
          "removed": false
        }
      ],
      "logsBloom": "0x00001000000000000000000008000000000000000000000000000000000000000000000000000000000000000000000000004100000000000000000000200000000000000000000000000000000000000000000000000000000008000000000000000000000000000000000000000000000000000000000000000000000000000000000000000000000020000000000000000000000000000000000000000000020000000100000000004000000000000000000000000000000000000000000200000000000000000000000000000000000000000000000000000000000000000010000000000000000000000000000000000000000000000000000000000000",
      "type": "0x2",
      "transactionHash": "0xe139858a16047ee39346dcf7597c5240fa94f7a203c062ab3c6ca92161ffd174",
      "transactionIndex": "0x63",
      "blockHash": "0xcc3137b11d64da51d84770c79e5f0d76ad76ca076b35f9ebeee2ca3fb8148ca1",
      "blockNumber": "0x8b045a",
      "gasUsed": "0xb5e3",
      "effectiveGasPrice": "0x218b04",
      "from": "0xd07ba8f10a16ef1e5024cf58a84adb6df228bb4a",
      "to": "0x94a9d9ac8a22534e3faca9f4e7f2e2cf85d5e4c8",
      "contractAddress": null
    },
    {
      "status": "0x1",
      "cumulativeGasUsed": "0x1e6c60e",
      "logs": [
        {
          "address": "0x94a9d9ac8a22534e3faca9f4e7f2e2cf85d5e4c8",
          "topics": [
            "0xddf252ad1be2c89b69c2b068fc378daa952ba7f163c4a11628f55a4df523b3ef",
            "0x000000000000000000000000d07ba8f10a16ef1e5024cf58a84adb6df228bb4a",
            "0x000000000000000000000000f39fd6e51aad88f6f4ce6ab8827279cfffb92266"
          ],
          "data": "0x0000000000000000000000000000000000000000000000000000000000989680",
          "blockHash": "0xcc3137b11d64da51d84770c79e5f0d76ad76ca076b35f9ebeee2ca3fb8148ca1",
          "blockNumber": "0x8b045a",
          "blockTimestamp": "0x68b590d8",
          "transactionHash": "0x33a5fb954d2d8111f3bb08c86b568415a4d44e4d5292752f8c015e42cb19afee",
          "transactionIndex": "0x64",
          "logIndex": "0xec",
          "removed": false
        },
        {
          "address": "0x94a9d9ac8a22534e3faca9f4e7f2e2cf85d5e4c8",
          "topics": [
            "0x8c5be1e5ebec7d5bd14f71427d1e84f3dd0314c0f7b2291e5b200ac8c7c3b925",
            "0x000000000000000000000000d07ba8f10a16ef1e5024cf58a84adb6df228bb4a",
            "0x0000000000000000000000009d9d8b57d51c31454cfb262c9371bad8dea20573"
          ],
          "data": "0xffffffffffffffffffffffffffffffffffffffffffffffffffffffffff67697f",
          "blockHash": "0xcc3137b11d64da51d84770c79e5f0d76ad76ca076b35f9ebeee2ca3fb8148ca1",
          "blockNumber": "0x8b045a",
          "blockTimestamp": "0x68b590d8",
          "transactionHash": "0x33a5fb954d2d8111f3bb08c86b568415a4d44e4d5292752f8c015e42cb19afee",
          "transactionIndex": "0x64",
          "logIndex": "0xed",
          "removed": false
        },
        {
          "address": "0x9d9d8b57d51c31454cfb262c9371bad8dea20573",
          "topics": [
            "0xef117caba196b83782b3367a1e48c0dad1c01942dc4deb6a5e78f032aef6c9d8",
            "0x000000000000000000000000f39fd6e51aad88f6f4ce6ab8827279cfffb92266"
          ],
          "data": "0x000000000000000000000000000000000000000000000000000000000098968000000000000000000000000000000000000000000000000000000000000f4240",
          "blockHash": "0xcc3137b11d64da51d84770c79e5f0d76ad76ca076b35f9ebeee2ca3fb8148ca1",
          "blockNumber": "0x8b045a",
          "blockTimestamp": "0x68b590d8",
          "transactionHash": "0x33a5fb954d2d8111f3bb08c86b568415a4d44e4d5292752f8c015e42cb19afee",
          "transactionIndex": "0x64",
          "logIndex": "0xee",
          "removed": false
        }
      ],
      "logsBloom": "0x00001000000000080000000008000000000000000000000000000000000000000020000001000000000000000000000000004100000000000000000000200000020000000000000000000008000000000000000000000000000008000000000000000000000000000000000100000000000000000000000000000010000000000000000000000000000020000000000000000000000000000000010000000000020000000100000000004000040000000000000000000000000000000000000200000002000000200000000000000000000000002000000000000000000000000010000000000000000000000000000000000000000000000000000000000000",
      "type": "0x2",
      "transactionHash": "0x33a5fb954d2d8111f3bb08c86b568415a4d44e4d5292752f8c015e42cb19afee",
      "transactionIndex": "0x64",
      "blockHash": "0xcc3137b11d64da51d84770c79e5f0d76ad76ca076b35f9ebeee2ca3fb8148ca1",
      "blockNumber": "0x8b045a",
      "gasUsed": "0xdcd6",
      "effectiveGasPrice": "0x218b04",
      "from": "0xd07ba8f10a16ef1e5024cf58a84adb6df228bb4a",
      "to": "0x9d9d8b57d51c31454cfb262c9371bad8dea20573",
      "contractAddress": null
    }
  ],
  "libraries": [],
  "pending": [],
  "returns": {},
  "timestamp": 1756729563,
  "chain": 11155111,
  "commit": "3d8f5f3"
}