{
  "transactions": [
    {
      "hash": "0x7b8066578b5d6fcc7e72a413ac63d13f0b3e1811e016813dcca313fdafe5dcd5",
      "transactionType": "CALL",
      "contractName": null,
      "contractAddress": "0x94a9d9ac8a22534e3faca9f4e7f2e2cf85d5e4c8",
      "function": "approve(address,uint256)",
      "arguments": [
        "0xaBad192CEa6452603E0b2625AD5233FCf6cfCF28",
        "115792089237316195423570985008687907853269984665640564039457584007913129639935"
      ],
      "transaction": {
        "from": "0xd29ac7dcb1a0f107357596cb1f9809c641cd1e42",
        "to": "0x94a9d9ac8a22534e3faca9f4e7f2e2cf85d5e4c8",
        "gas": "0x10a01",
        "value": "0x0",
        "input": "0x095ea7b3000000000000000000000000abad192cea6452603e0b2625ad5233fcf6cfcf28ffffffffffffffffffffffffffffffffffffffffffffffffffffffffffffffff",
        "nonce": "0x6",
        "chainId": "0xaa36a7"
      },
      "additionalContracts": [],
      "isFixedGasLimit": false
    },
    {
      "hash": "0x039d9e94dfc28e5e9dc0821270f9c57049dab3ee4bf509c7de64d56c3ef58cb9",
      "transactionType": "CALL",
      "contractName": null,
      "contractAddress": "0xabad192cea6452603e0b2625ad5233fcf6cfcf28",
      "function": "executeUSDCTransfer(address,uint256,uint256)",
      "arguments": [
        "0xf39Fd6e51aad88F6F4ce6aB8827279cffFb92266",
        "9000000",
        "1000000"
      ],
      "transaction": {
        "from": "0xd29ac7dcb1a0f107357596cb1f9809c641cd1e42",
        "to": "0xabad192cea6452603e0b2625ad5233fcf6cfcf28",
        "gas": "0x15b31",
        "value": "0x0",
        "input": "0x07378d23000000000000000000000000f39fd6e51aad88f6f4ce6ab8827279cfffb92266000000000000000000000000000000000000000000000000000000000089544000000000000000000000000000000000000000000000000000000000000f4240",
        "nonce": "0x7",
        "chainId": "0xaa36a7"
      },
      "additionalContracts": [],
      "isFixedGasLimit": false
    }
  ],
  "receipts": [
    {
      "status": "0x1",
      "cumulativeGasUsed": "0xfcb6b6",
      "logs": [
        {
          "address": "0x94a9d9ac8a22534e3faca9f4e7f2e2cf85d5e4c8",
          "topics": [
            "0x8c5be1e5ebec7d5bd14f71427d1e84f3dd0314c0f7b2291e5b200ac8c7c3b925",
            "0x000000000000000000000000d29ac7dcb1a0f107357596cb1f9809c641cd1e42",
            "0x000000000000000000000000abad192cea6452603e0b2625ad5233fcf6cfcf28"
          ],
          "data": "0xffffffffffffffffffffffffffffffffffffffffffffffffffffffffffffffff",
          "blockHash": "0x4976e0b40ad77a1b6d5f2e74ceb3df49691d19fc83186b16fb5c62556ed475b5",
          "blockNumber": "0x8b056f",
          "blockTimestamp": "0x68b59dec",
          "transactionHash": "0x7b8066578b5d6fcc7e72a413ac63d13f0b3e1811e016813dcca313fdafe5dcd5",
          "transactionIndex": "0x62",
          "logIndex": "0xcd",
          "removed": false
        }
      ],
      "logsBloom": "0x0000000000000000000000000000000000000000000000000000000000000000000000000000000000000000000000000008000000000000000000000020000000000000000000000000001000000000000000000000000000000800000000000000000000000000000000000000000000000000000000000000000000000000000000000000000000000000000000000000000000000000000000000000000002000000010000000100400000000000000a000000000000000000000000000000000000000000000000000000000000000000000000000000000000000000002010000000000000000000000000000000000000000000000000000000000000",
      "type": "0x2",
      "transactionHash": "0x7b8066578b5d6fcc7e72a413ac63d13f0b3e1811e016813dcca313fdafe5dcd5",
      "transactionIndex": "0x62",
      "blockHash": "0x4976e0b40ad77a1b6d5f2e74ceb3df49691d19fc83186b16fb5c62556ed475b5",
      "blockNumber": "0x8b056f",
      "gasUsed": "0xb5e3",
      "effectiveGasPrice": "0x3dbeff",
      "from": "0xd29ac7dcb1a0f107357596cb1f9809c641cd1e42",
      "to": "0x94a9d9ac8a22534e3faca9f4e7f2e2cf85d5e4c8",
      "contractAddress": null
    },
    {
      "status": "0x1",
      "cumulativeGasUsed": "0xfdb213",
      "logs": [
        {
          "address": "0x94a9d9ac8a22534e3faca9f4e7f2e2cf85d5e4c8",
          "topics": [
            "0xddf252ad1be2c89b69c2b068fc378daa952ba7f163c4a11628f55a4df523b3ef",
            "0x000000000000000000000000d29ac7dcb1a0f107357596cb1f9809c641cd1e42",
            "0x000000000000000000000000f39fd6e51aad88f6f4ce6ab8827279cfffb92266"
          ],
          "data": "0x0000000000000000000000000000000000000000000000000000000000895440",
          "blockHash": "0x4976e0b40ad77a1b6d5f2e74ceb3df49691d19fc83186b16fb5c62556ed475b5",
          "blockNumber": "0x8b056f",
          "blockTimestamp": "0x68b59dec",
          "transactionHash": "0x039d9e94dfc28e5e9dc0821270f9c57049dab3ee4bf509c7de64d56c3ef58cb9",
          "transactionIndex": "0x63",
          "logIndex": "0xce",
          "removed": false
        },
        {
          "address": "0x94a9d9ac8a22534e3faca9f4e7f2e2cf85d5e4c8",
          "topics": [
            "0x8c5be1e5ebec7d5bd14f71427d1e84f3dd0314c0f7b2291e5b200ac8c7c3b925",
            "0x000000000000000000000000d29ac7dcb1a0f107357596cb1f9809c641cd1e42",
            "0x000000000000000000000000abad192cea6452603e0b2625ad5233fcf6cfcf28"
          ],
          "data": "0xffffffffffffffffffffffffffffffffffffffffffffffffffffffffff76abbf",
          "blockHash": "0x4976e0b40ad77a1b6d5f2e74ceb3df49691d19fc83186b16fb5c62556ed475b5",
          "blockNumber": "0x8b056f",
          "blockTimestamp": "0x68b59dec",
          "transactionHash": "0x039d9e94dfc28e5e9dc0821270f9c57049dab3ee4bf509c7de64d56c3ef58cb9",
          "transactionIndex": "0x63",
          "logIndex": "0xcf",
          "removed": false
        },
        {
          "address": "0x94a9d9ac8a22534e3faca9f4e7f2e2cf85d5e4c8",
          "topics": [
            "0xddf252ad1be2c89b69c2b068fc378daa952ba7f163c4a11628f55a4df523b3ef",
            "0x000000000000000000000000d29ac7dcb1a0f107357596cb1f9809c641cd1e42",
            "0x000000000000000000000000d07ba8f10a16ef1e5024cf58a84adb6df228bb4a"
          ],
          "data": "0x00000000000000000000000000000000000000000000000000000000000f4240",
          "blockHash": "0x4976e0b40ad77a1b6d5f2e74ceb3df49691d19fc83186b16fb5c62556ed475b5",
          "blockNumber": "0x8b056f",
          "blockTimestamp": "0x68b59dec",
          "transactionHash": "0x039d9e94dfc28e5e9dc0821270f9c57049dab3ee4bf509c7de64d56c3ef58cb9",
          "transactionIndex": "0x63",
          "logIndex": "0xd0",
          "removed": false
        },
        {
          "address": "0x94a9d9ac8a22534e3faca9f4e7f2e2cf85d5e4c8",
          "topics": [
            "0x8c5be1e5ebec7d5bd14f71427d1e84f3dd0314c0f7b2291e5b200ac8c7c3b925",
            "0x000000000000000000000000d29ac7dcb1a0f107357596cb1f9809c641cd1e42",
            "0x000000000000000000000000abad192cea6452603e0b2625ad5233fcf6cfcf28"
          ],
          "data": "0xffffffffffffffffffffffffffffffffffffffffffffffffffffffffff67697f",
          "blockHash": "0x4976e0b40ad77a1b6d5f2e74ceb3df49691d19fc83186b16fb5c62556ed475b5",
          "blockNumber": "0x8b056f",
          "blockTimestamp": "0x68b59dec",
          "transactionHash": "0x039d9e94dfc28e5e9dc0821270f9c57049dab3ee4bf509c7de64d56c3ef58cb9",
          "transactionIndex": "0x63",
          "logIndex": "0xd1",
          "removed": false
        },
        {
          "address": "0xabad192cea6452603e0b2625ad5233fcf6cfcf28",
          "topics": [
            "0xef117caba196b83782b3367a1e48c0dad1c01942dc4deb6a5e78f032aef6c9d8",
            "0x000000000000000000000000f39fd6e51aad88f6f4ce6ab8827279cfffb92266"
          ],
          "data": "0x000000000000000000000000000000000000000000000000000000000089544000000000000000000000000000000000000000000000000000000000000f4240",
          "blockHash": "0x4976e0b40ad77a1b6d5f2e74ceb3df49691d19fc83186b16fb5c62556ed475b5",
          "blockNumber": "0x8b056f",
          "blockTimestamp": "0x68b59dec",
          "transactionHash": "0x039d9e94dfc28e5e9dc0821270f9c57049dab3ee4bf509c7de64d56c3ef58cb9",
          "transactionIndex": "0x63",
          "logIndex": "0xd2",
          "removed": false
        }
      ],
      "logsBloom": "0x0000000000000000000000000000000000000000000000000000000000000000002000000000000000000000000000000008410000000000000000000020000002000000000000000000001800000000000000000000000000000800000000000000000000000000000000010000000000000000000000000000001000000000000000000000000000000004000000000000000000800000000000000000000002000000010000000100400004000000000a000000000000000000000000000200000002000000200000000000000000000000006000000000000000000000002010000000000000000000000000000000000000000000000000000000000000",
      "type": "0x2",
      "transactionHash": "0x039d9e94dfc28e5e9dc0821270f9c57049dab3ee4bf509c7de64d56c3ef58cb9",
      "transactionIndex": "0x63",
      "blockHash": "0x4976e0b40ad77a1b6d5f2e74ceb3df49691d19fc83186b16fb5c62556ed475b5",
      "blockNumber": "0x8b056f",
      "gasUsed": "0xfb5d",
      "effectiveGasPrice": "0x3dbeff",
      "from": "0xd29ac7dcb1a0f107357596cb1f9809c641cd1e42",
      "to": "0xabad192cea6452603e0b2625ad5233fcf6cfcf28",
      "contractAddress": null
    }
  ],
  "libraries": [],
  "pending": [],
  "returns": {},
  "timestamp": 1756732911,
  "chain": 11155111,
  "commit": "3d8f5f3"
}